:020000040800F2
:10000000E01C0020F1380008FD020008FF02000893
:1000100003030008070300080B03000800000000AA
:100020000000000000000000000000000F030008B6
:100030001103000800000000130300081503000866
:100040000B3900080B3900080B3900080B39000880
:100050000B3900080B3900080B3900080B39000870
:100060000B3900080B3900080B3900080B39000860
:100070000B3900080B3900080B3900080B39000850
:100080000B3900080B3900080B3900080B39000840
:100090000B3900080B3900080B3900080B39000830
:1000A0000B3900080B3900080B3900080B39000820
:1000B0000B3900080B3900080B3900080B39000810
:1000C0000B3900080B3900080B3900080B39000800
:1000D0000B390008532900080B3900080B390008B8
:1000E0000B3900080B3900080B390008DFF80CD079
:1000F00007F082F90048004701010008E01C0020D9
:100100001CB5594800680190482002F07BFB4FF471
:10011000165002F0D2FB00F023FA01F095FB01F03B
:1001200005FC01F013FE06F0FAFEF0B14FF4784042
:100130004E4908804FF6FF7000F0F2F94CA23221D0
:100140003C2001F054FB4DA246213C2001F04FFB26
:100150004FF6FF7300937E23F0225A213C2001F0DA
:1001600028F94FF6FF7000F0DBF911E048A2822178
:100170003C2001F03CFB4FF4FA7002F057FB49A21F
:1001800082213C2001F033FB4FF4FA7002F04EFB69
:1001900001F056FE0028E9D111E047A282213C205F
:1001A00001F025FB4FF4FA7002F040FB48A28221D7
:1001B0003C2001F01CFB4FF4FA7002F037FB02F018
:1001C000AAFA0028E9D101F0D4FE4CE002F0C4FA0A
:1001D0000446002C09DA604204B200230093102385
:1001E0002D2296218C2001F0E7F91F201F4908805D
:1001F0003DA296213C2001F0FAFA0A2094FBF0F58A
:100200001023009302232A469621942001F073FACA
:100210000A2094FBF0F100FB114510230093012309
:100220002A469621AC2001F066FA0A2094FBF0F0F1
:100230003030C0B28DF805000A2094FBF0F100FBCD
:100240001140C0B28DF8060001A801F044FE20283C
:1002500005D101AA4FF487711E2001F0C8FA4FF4AE
:100260007A7002F0E3FAB1E77C7700080000002022
:100270004D696E692053544D33320000466F6E74E1
:10028000205570646174696E672E2E2E0000000088
:1002900032344C303120436865636B204661696CB1
:1002A00065642100506C6561736520436865636B0C
:1002B0002120202020202000445331384232302099
:1002C000436865636B204661696C656421000000CA
:1002D000506C6561736520436865636B2120202045
:1002E000202020202000000054656D70657261742C
:1002F000653A2020202E204300000000704700BFF8
:10030000FEE700BFFEE700BFFEE700BFFEE7704765
:1003100070477047704700004FF48071FF4A516189
:1003200049005161FE4908604FF08001516111613F
:100330004FF400711161704710B504460B4620461A
:10034000FFF7EAFF4FF48070F4490861400048610C
:10035000F34803604FF08000486108614FF400707B
:10036000086110BD70B504462046FFF7D5FF4FF079
:100370008830EC490860EC49C1F8040C4FF6FF7076
:10038000E74908604FF48070E44908614FF4007059
:1003900048614FF0400048614FF0050002F061FAFB
:1003A0004020DE490861E048D0F8080C85B24815C5
:1003B00008614FF03330DB49086001F10401086047
:1003C0004FF6FF70D6490860284670BD00B5222060
:1003D000FFF7A2FF00BD4FF48071D04A11614900C0
:1003E0005161CF4908604FF08001516111614FF4B4
:1003F00000711161704730B5014601F01F04C1F36F
:100400004513CA0AE50205EB43151544A8B230BDF1
:1004100070B504460D46F02C02DAB5F5A07F01DB7D
:10042000002070BD2946204607F008F82220FFF77B
:1004300073FF4FF08830BB490860BB49C1F8040C1A
:100440004FF6FF70B64908604FF48070B3490861F9
:100450004FF4007048614FF04000486108614FF070
:10046000020002F0FEF94020AC494861022002F08F
:10047000F8F94020A9490861AB48D0F8080C86B2C9
:10048000481508614FF03330A649086001F10401B6
:1004900008604FF6FF70A449C1F80C0CA34800880F
:1004A000A0F58A4131390BD0A0480088A0F5094158
:1004B000893905D09D480088A0F53541053901D11D
:1004C0003046AEE73046FFF796FFAAE700B540F2A8
:1004D00073110720FFF730FF00BD00B50021072092
:1004E000FFF72AFF00BD70B504460D462946204699
:1004F00006F0A4FF2220FFF70FFF4FF4807087491A
:100500000861400048618A480088854908604FF0CA
:1005100080008249486108614FF40070086170BD35
:1005200070B5044600250021084606F087FFFFF756
:100530004DFF00BF10E04FF4807078490861400023
:100540004861774804604FF08000486108614FF4CB
:100550000070086105F10105B5F5963FEBD370BD5C
:1005600008B50121192002F0CAFD0121714802F0ED
:10057000E2FB4FF4F860ADF8000010208DF80300A6
:1005800003208DF802006946644802F005FB4FF431
:10059000F861624802F0ABFB4FF6FF70ADF8000067
:1005A0006946604802F0F8FA4FF6FF715D4802F0C4
:1005B0009EFB322002F03AF901210020FFF7BCFE39
:1005C000322002F033F90020FFF7CCFE57490880B3
:1005D0000846018858A006F04FFF54480088A0F54F
:1005E0001341253905D051480088A0F51341283919
:1005F0007ED141F28F01EC20FFF79EFE41F23421C3
:10060000EF20FFF799FE4FF480710120FFF794FE71
:100610004FF4E0610220FFF78FFE4FF4807101205C
:10062000FFF78AFE4FF4E0610220FFF785FE41F2FA
:1006300030010320FFF780FE00210420FFF77CFE3D
:1006400040F207210820FFF777FE00210920FFF77D
:1006500073FE00210A20FFF76FFE01210C20FFF737
:100660006BFE00210D20FFF767FE00210F20FFF732
:1006700063FE00211020FFF75FFE07211120FFF726
:100680005BFE00211220FFF757FE00211320FFF729
:1006900053FE322002F0CAF841F290511020FFF7C9
:1006A0004BFE40F227211120FFF746FE322002F0D8
:1006B000BDF89C211220FFF73FFE322002F0B6F871
:1006C0004FF4C8511320FFF737FE23212920FFF7ED
:1006D00033FE0E212B20FFF72FFE322002F0A6F86A
:1006E00000212020FFF728FE40F23F11212000E0EA
:1006F0008EE0FFF721FE322002F098F8072130202B
:10070000FFF71AFE40F207713120FFF715FE0621B0
:100710003220FFF711FE40F2047113E00010014097
:100720000C0C0140000C01400000014004000020BE
:100730000000002000023000204C43442049443A8D
:1007400025780A003520FFF7F7FD41F604713620C1
:10075000FFF7F2FD04213720FFF7EEFD00213820DE
:10076000FFF7EAFD40F206713920FFF7E5FD40F2A0
:1007700001713C20FFF7E0FD0F213D20FFF7DCFD7C
:10078000322002F053F800215020FFF7D5FDEF2171
:100790005120FFF7D1FD00215220FFF7CDFD40F29F
:1007A0003F115320FFF7C8FD4FF427416020FFF7AA
:1007B000C3FD01216120FFF7BFFD00216A20FFF783
:1007C000BBFD00218020FFF7B7FD00218120FFF74E
:1007D000B3FD00218220FFF7AFFD00218320FFF74A
:1007E000ABFD00218420FFF7A7FD00218520FFF746
:1007F000A3FD10219020FFF79FFD4FF4C0619220D0
:10080000FFF79AFD40F233110720FFF795FD7FE2D5
:10081000FF480088A0F51341203904D0FC48008827
:10082000B0F5134F7ED100210846FFF785FD4FF448
:1008300080710120FFF780FD4FF4E0610220FFF797
:100840007BFD41F230010320FFF776FD00210420FB
:10085000FFF772FD40F202210820FFF76DFD002135
:100860000920FFF769FD00210A20FFF765FD01213E
:100870000C20FFF761FD00210D20FFF75DFD002139
:100880000F20FFF759FD322001F0D0FF40F2011197
:100890000720FFF751FD322001F0C8FF4FF48651C9
:1008A0001020FFF749FD07211120FFF745FD4FF408
:1008B00088711220FFF740FD4FF430611320FFF7DD
:1008C0003BFD00212920FFF737FD44F210012B20CA
:1008D000FFF732FD00215020FFF72EFDEF215120C0
:1008E000FFF72AFD00215220FFF726FD40F23F11BD
:1008F0005320FFF721FD4FF41C516020FFF71CFD32
:1009000001216120FFF718FD00216A20FFF714FD87
:1009100000218020FFF710FD00218120FFF70CFD52
:10092000002100E02DE08220FFF706FD002183205A
:10093000FFF702FD00218420FFF7FEFC0021852047
:10094000FFF7FAFC10219020FFF7F6FC002192201F
:10095000FFF7F2FC01219320FFF7EEFC4FF48871C2
:100960009520FFF7E9FC00219720FFF7E5FC002127
:100970009820FFF7E1FC40F273110720FFF7DCFC41
:10098000C6E1A3480088A0F5A84108397ED14FF4FC
:1009900080710120FFF7D0FC4FF4E0610220FFF7E7
:1009A000CBFC41F230010320FFF7C6FC00210420FC
:1009B000FFF7C2FC40F207210820FFF7BDFC002131
:1009C0000920FFF7B9FC00210A20FFF7B5FC002140
:1009D0000C20FFF7B1FC00210D20FFF7ADFC00213A
:1009E0000F20FFF7A9FC142001F020FF41F2B061B5
:1009F0001020FFF7A1FC01211120FFF79DFC012130
:100A00001720FFF799FC4FF49C711220FFF794FC1C
:100A10004FF400611320FFF78FFC09212920FFF715
:100A20008BFC09212A20FFF787FC0021A420FFF777
:100A300083FC00215020FFF77FFCEF215120FFF7BE
:100A40007BFC00215220FFF777FC40F23F1153203E
:100A5000FFF772FC4FF41C516020FFF76DFC012181
:100A60006120FFF769FC00216A20FFF765FC002187
:100A70008020FFF761FC00218120FFF75DFC002151
:100A80008220FFF759FC0021832000E023E0FFF7DC
:100A900053FC00218420FFF74FFC00218520FFF745
:100AA0004BFC13219020FFF747FC00219220FFF719
:100AB00043FC03219320FFF73FFC4FF488719520FE
:100AC000FFF73AFC40F273110720FFF735FC3220A4
:100AD00001F0ACFE1CE14E480088A0F5A851053994
:100AE0007ED10720FFF728FC322001F09FFE4FF453
:100AF0008E711220FFF720FC0121A420FFF71CFCBF
:100B00000F210820FFF718FC08210A20FFF714FC2A
:100B100008210D20FFF710FC40F207713020FFF78D
:100B20000BFC07213120FFF707FC40F20361322064
:100B3000FFF702FC4FF4E0613320FFF7FDFB40F2CA
:100B400002213420FFF7F8FB02213520FFF7F4FBE8
:100B500041F60F713620FFF7EFFB40F207713720A7
:100B6000FFF7EAFB00213820FFF7E6FB00213920E0
:100B7000FFF7E2FB40F207713A20FFF7DDFB0021AF
:100B80003B20FFF7D9FB07213C20FFF7D5FB0021D5
:100B90003D20FFF7D1FB322001F048FE0121072064
:100BA000FFF7CAFB01211720FFF7C6FB322001F037
:100BB0003DFE4FF4BD511020FFF7BEFB40F2172160
:100BC0001120FFF7B9FB4FF48F711220FFF7B4FB30
:100BD0004FF470611320FFF7AFFB00212A2000E0E3
:100BE00097E0FFF7A9FB0A212920FFF7A5FB4FF4A7
:100BF0009F711220FFF7A0FB00215020FFF79CFB04
:100C0000EF215120FFF798FB0021522002E0000065
:100C100004000020FFF790FB40F23F115320FFF744
:100C20008BFB4FF41C516020FFF786FB01216120F4
:100C3000FFF782FB00216A20FFF77EFB0021802066
:100C4000FFF77AFB00218120FFF776FB002182204D
:100C5000FFF772FB00218320FFF76EFB0021842049
:100C6000FFF76AFB00218520FFF766FB1321902028
:100C7000FFF762FB4FF440719220FFF75DFB052107
:100C80009320FFF759FB00219520FFF755FB00212A
:100C90009720FFF751FB00219820FFF74DFB4FF401
:100CA00080710120FFF748FB4FF4E0610220FFF75D
:100CB00043FB41F230010320FFF73EFB00210420FB
:100CC000FFF73AFB00210C20FFF736FB00210F2035
:100CD000FFF732FB00212020FFF72EFB002121200F
:100CE000FFF72AFB21210720FFF726FB142001F044
:100CF0009DFD61210720FFF71FFB142001F096FDE9
:100D000040F273110720FFF717FB142001F08EFD4E
:100D100047E3FF480088A0F5354105397DD10846F5
:100D2000FFF70AFB00210846FFF706FB00210846F3
:100D3000FFF702FB00210846FFF7FEFA0121A4207D
:100D4000FFF7FAFA142001F071FD4FF41C516020F6
:100D5000FFF7F2FA40F202210820FFF7EDFA4FF414
:100D600005713020FFF7E8FA43F215713120FFF7E3
:100D7000E3FA40F204613220FFF7DEFA40F6166132
:100D80003320FFF7D9FA42F211213420FFF7D4FAC9
:100D90004FF4A8513520FFF7CFFA48F2075136201B
:100DA000FFF7CAFA41F207413720FFF7C5FA41F2CF
:100DB00003413820FFF7C0FA20213920FFF7BCFAA1
:100DC0001A219020FFF7B8FA00211020FFF7B4FA9B
:100DD00007211120FFF7B0FA00211220FFF7ACFA2B
:100DE00000211320FFF7A8FA142001F01FFD4FF493
:100DF000E6611020FFF7A0FA40F237111120FFF74B
:100E00009BFA142001F012FD4FF4DC711220FFF761
:100E100093FA142001F00AFD00E083E04FF47061C2
:100E20001320FFF789FA80212A20FFF785FA48214D
:100E30002920FFF781FA142001F0F8FC4FF48071AB
:100E40000120FFF779FA4FF4E0610220FFF774FA0E
:100E500041F230210320FFF76FFA40F2022108200F
:100E6000FFF76AFA00210A20FFF766FA00210C203A
:100E7000FFF762FA00210D20FFF75EFA30210E2005
:100E8000FFF75AFA00215020FFF756FAEF215120C0
:100E9000FFF752FA00215220FFF74EFA40F23F11BD
:100EA0005320FFF749FA4FF41C516020FFF744FA32
:100EB00001216120FFF740FA00216A20FFF73CFA88
:100EC00011219020FFF738FA4FF4C0619220FFF70C
:100ED00033FA40F202419320FFF72EFA02219420C8
:100EE000FFF72AFA142001F0A1FC01210720FFF7E7
:100EF00023FA142001F09AFC61210720FFF71CFA65
:100F000040F273110720FFF717FA00212020FFF7A6
:100F100013FA00212120FFF70FFA22210020FFF70A
:100F20000BFA3EE27A480088A0F5094189397DD163
:100F300001210020FFF700FA4AF6A4010320FFF781
:100F4000FBF900210C20FFF7F7F940F60C010D200A
:100F5000FFF7F2F94FF42C510E20FFF7EDF9B02115
:100F60001E20FFF7E9F942F63F310120FFF7E4F9CF
:100F70004FF4C0610220FFF7DFF900211020FFF7D6
:100F8000DBF946F270011120FFF7D6F900210520A8
:100F9000FFF7D2F900210620FFF7CEF94EF61C71BB
:100FA0001620FFF7C9F903211720FFF7C5F940F212
:100FB00033210720FFF7C0F900210B20FFF7BCF910
:100FC00000210F20FFF7B8F900214120FFF7B4F905
:100FD00000214220FFF7B0F900214820FFF7ACF9CB
:100FE00040F23F114920FFF7A7F900214A20FFF7FF
:100FF000A3F900214B20FFF79FF94FF46F414420E4
:10100000FFF79AF900214520FFF796F940F23F11CA
:101010004620FFF791F940F207713020FFF78CF975
:101020004FF401713120FFF787F900E03DE04FF404
:1010300001713220FFF780F940F202513320FFF7AF
:101040007BF940F207513420FFF776F94FF4017134
:101050003520FFF771F94FF401713620FFF76CF975
:1010600040F202513720FFF767F940F202313A208F
:10107000FFF762F940F202313B20FFF75DF90021F2
:101080002320FFF759F900212420FFF755F94FF4E9
:1010900000412520FFF750F900214F20FFF74CF9C0
:1010A00000214E20FFF748F97BE119480088A0F5A0
:1010B0008A4131397ED101210020FFF73DF90A2014
:1010C00001F0B4FB41F228611020FFF735F90E2141
:1010D0001220FFF731F940F639211320FFF72CF9E0
:1010E0000A2001F0A3FB40211120FFF725F9502130
:1010F0001520FFF721F90A2001F098FB1E2112208C
:10110000FFF71AF90A2001F091FB4FF4B15101E009
:10111000040000201020FFF70FF942F639211320B8
:10112000FFF70AF90A2001F081FB4FF480710120DA
:10113000FFF702F94FF440710220FFF7FDF841F28A
:1011400030010320FFF7F8F840F202210820FFF7F2
:10115000F3F808210A20FFF7EFF800213020FFF70D
:10116000EBF840F202413120FFF7E6F84FF48371CB
:101170003220FFF7E1F840F203513320FFF7DCF8AB
:101180004FF482713420FFF7D7F840F20131352057
:10119000FFF7D2F840F207713620FFF7CDF840F2A2
:1011A00005313720FFF7C8F84FF402713820FFF7F8
:1011B000C3F800E03EE040F60B713920FFF7BCF8C1
:1011C00002214120FFF7B8F84FF41C516020FFF7CF
:1011D000B3F801216120FFF7AFF84FF404719020BC
:1011E000FFF7AAF84FF485719220FFF7A5F80421C4
:1011F0009320FFF7A1F84FF48071A020FFF79CF82F
:1012000001210720FFF798F821210720FFF794F824
:1012100023210720FFF790F833210720FFF78CF8F0
:1012200040F233110720FFF787F80021A020FFF7D5
:1012300083F8B6E0FA480088A0F58A4135397ED1B6
:1012400030211520FFF778F810219A20FFF774F865
:1012500020211120FFF770F843F228411020FFF7FA
:101260006BF802211220FFF767F841F238011320D2
:10127000FFF762F8282001F0D9FA12210846FFF79B
:101280005BF8282001F0D2FA43F220411020FFF74A
:1012900053F843F238011320FFF74EF8462001F0CF
:1012A000C5FA00213020FFF747F840F20241312013
:1012B000FFF742F840F207313220FFF73DF84FF4D4
:1012C00041713320FFF738F804213420FFF734F858
:1012D00040F201413520FFF72FF840F20771362028
:1012E000FFF72AF840F205313720FFF725F84FF4D1
:1012F000C2613820FFF720F84FF4C2613920FFF7B0
:101300001BF84FF480710120FFF716F84FF440717D
:101310000220FFF711F841F230010320FFF70CF82B
:1013200040F608010820FFF707F808210A20FFF718
:1013300003F84FF41C516020FEF7FEFF00E030E0A0
:1013400001216120FEF7F8FF4FF49F719020FEF716
:10135000F3FF4FF480719220FEF7EEFF4FF480719F
:101360009320FEF7E9FF4FF44051A020FEF7E4FF81
:101370001021A320FEF7E0FF01210720FEF7DCFF8C
:1013800021210720FEF7D8FF23210720FEF7D4FFF5
:1013900033210720FEF7D0FF40F233110720FEF77C
:1013A000CBFF01209F4908604FF6FF70FFF7B8F8A8
:1013B00008BD2DE9F05F05460E4617469846DDF854
:1013C00028A04FF0000B781B401C1FFA80FB34460E
:1013D0001EE02146284606F031F8FEF7F7FF4FF0F1
:1013E000000911E04FF480708F49086140004861A6
:1013F0008E48C0F80CAC802048610861800008610C
:1014000009F101001FFA80F9D945EBDB601C84B2B9
:101410004445DEDDBDE8F09F2DE9FF4F85B08146F4
:101420008A460020049003900798A0EB09050898CD
:10143000A0EB0A06CDF80890CDF804A0002D01DD40
:10144000012705E00DB9002702E04FF0FF376D429C
:10145000002E02DD4FF0010806E016B94FF000083B
:1014600002E04FF0FF387642B54201DD2C4600E045
:1014700034464FF0000B21E0019881B2029880B20F
:10148000FFF731F8049828440490039830440390FF
:101490000498A04205DD0498001B0490029838448B
:1014A00002900398A04205DD0398001B0390019869
:1014B000404401900BF101001FFA80FB601C834542
:1014C000DADD09B0BDE8F08F2DE9F04104460D46A4
:1014D00016461F462B46324629462046FFF79CFFFC
:1014E0003B46224629462046FFF796FF3B463246BA
:1014F00039462046FFF790FF3B46324629463046A4
:10150000FFF78AFFBDE8F0812DE9F04706460F4658
:101510009046002445460320A0EB480948E03A1BCA
:1015200091B2721B90B2FEF7DEFF3A1B91B27219B4
:1015300090B2FEF7D8FF7A1991B2321B90B2FEF743
:10154000D2FF3A1B91B2721B90B2FEF7CCFF7A1B0E
:1015500091B2321B90B2FEF7C6FF3A1991B27219DE
:1015600090B2FEF7C0FF7A1B91B2321990B2FEF72B
:10157000BAFF7A1991B2321990B2FEF7B4FF3A1954
:1015800091B2721B90B2FEF7AEFF641CB9F1000F6E
:1015900003DAA000801D814404E0601B80000A3053
:1015A00081446D1E7A1991B2321990B2FEF79BFFF9
:1015B000AC42B4DDBDE8F0872DE9FF4F81B00746AE
:1015C000894616461D46BB46194800880090E82FFC
:1015D00002DCB9F59C7F02DD05B0BDE8F08FA6F115
:1015E0002000C6B20E98D0B9002443E00C2D07D1DC
:1015F00006EB46000F4901EB800010F804A004E060
:101600000D4800EB061010F804A04FF0000825E08C
:101610001AF0010F12D006490098088012E02CE061
:1016200004000020A80122420010014000000140F7
:101630000000002080770008F47B00087E480088C6
:101640007E49088049463846FEF74DFF4FEA6A0A50
:10165000781C87B208F1010000F0FF0805EBD57196
:10166000B8EB610FD4DB5F4609F101001FFA80F986
:10167000601CC4B2AC42B9DB2DE0002429E00C2D83
:1016800007D106EB46006E4901EB800010F804A07C
:1016900004E06C4800EB061010F804A04FF00008BE
:1016A00010E01AF0010F07D009EB040291B207EB2A
:1016B000080290B2FEF717FF4FEA6A0A08F101002C
:1016C00000F0FF0805EBD571B8EB610FE9DB601C9A
:1016D000C4B2AC42D3DB59490098088000BF7BE715
:1016E00010B50246012000E050430B00A1F10104B7
:1016F000E1B2F9D110BD2DE9FF4F81B00746914607
:101700001E460E9D4FF0000A00243BE0301B401E99
:10171000C1B20A20FFF7E4FFB9FBF0F00A21B0FBE9
:10172000F1F201FB120000F0FF08BAF1000F16D130
:10173000701EA04213DDB8F1000F0ED10023AB469E
:1017400005EBD571491001FB047188B200932B465B
:1017500020220299FFF730FF12E04FF0010A002328
:10176000AB4605EBD571491001FB047188B20093BB
:101770002B4608F13001CAB20299FFF71DFF00BFE6
:10178000601CC4B2B442C1DB05B0BDE8F08F2DE9E6
:10179000FF4F81B007468A4690461D460E9E0024A4
:1017A00020E0281B401EC1B20A20FFF799FFB8FBBA
:1017B000F0F00A21B0FBF1F201FB120000F0FF098A
:1017C0000F9BB34606EBD671491001FB047188B23A
:1017D0000093334609F13001CAB25146FFF7ECFEDF
:1017E000601CC4B2AC42DCDB05B0BDE8F08FF8B5DC
:1017F00005460E4614461BE0E82D03DD002506F1E4
:10180000100086B2B6F59C7F06DD00200546064630
:101810004FF6FF70FEF784FE00230093227810231A
:1018200031462846FFF7C8FE05F1080085B2641C62
:1018300020780028E0D1F8BD020000200000002040
:1018400080770008F47B000808B50121042001F02E
:1018500056FC4FF42040ADF8000048208DF80300FE
:1018600069462B4801F098F90120ADF800002820C6
:101870008DF803006946264801F08EF908BD10B5C1
:101880000121244801F057FA2348007858B323482F
:10189000006830B12248006818B122480068012869
:1018A00021D10A2000F0C2FF00201B4908701B480C
:1018B000006828B901211C4801F03DFA012010BD43
:1018C0001748006828B90121174801F034FA0220AE
:1018D000F5E714480068012813D10121124801F0EE
:1018E0002AFA0320EBE70D480068012809D10C48CB
:1018F0000068012805D10B48006810B9012006498D
:1019000008700121084801F016FA0020D7E700000E
:10191000000801400004300006000020340121428C
:101920003C012142000121420002300008B51C2088
:10193000ADF8000010208DF803006946C74801F09B
:101940002BF91C21C54801F0D2F900F0B6F908BD09
:1019500010B500240020C24908604FF0050000F0D7
:1019600085F9FF2000F082F904460120BD49C1F845
:101970008801204610BD10B504460020B849086013
:101980004FF0010000F072F9204600F06FF90120DD
:10199000B449C1F8880110BD10B50020B0490860F5
:1019A0004FF0060000F062F90120AE49C1F888014D
:1019B00010BD10B50020AA4908604FF0040000F0E7
:1019C00055F90120A749C1F8880110BD10B50024C0
:1019D0000020A34908604FF0900000F047F9002074
:1019E00000F044F9002000F041F9002000F03EF939
:1019F000FF2000F03BF944EA0024FF2000F036F914
:101A0000044301209749C1F88801204610BD2DE903
:101A1000F04106460C4617460020914908604FF0F9
:101A2000030000F023F9C4F3074000F01FF9C4F3EA
:101A3000072000F01BF9E0B200F018F9002505E0DE
:101A4000FF2000F013F97055681C85B2BD42F7DB2A
:101A5000012083490860BDE8F08110B500BFFFF7A1
:101A600077FF00F001000128F9D010BD2DE9F04109
:101A700006460C461746FFF78FFF0020784908609E
:101A80004FF0020000F0F2F8C4F3074000F0EEF867
:101A9000C4F3072000F0EAF8E0B200F0E7F8002510
:101AA00004E0705D00F0E2F8681C85B2BD42F8DB2E
:101AB00001206B490860FFF7D0FFBDE8F0812DE9F8
:101AC000F04107460E461446F0B2C0F58075AC42B0
:101AD00000DC254612E02A4631463846FFF7C6FFAD
:101AE000AC4200D10BE02F442E44601B84B2B4F50D
:101AF000807F02DD4FF4807500E02546EBE700BFF4
:101B0000BDE8F08110B504462403FFF745FFFFF759
:101B1000A4FF0020524908604FF0200000F0A6F812
:101B2000C4F3074000F0A2F8C4F3072000F09EF8C9
:101B3000E0B200F09BF801204A49C1F88801FFF7A4
:101B40008CFF10BD2DE9F04781460F4616464FEA3F
:101B50001738C7F30B0ACAF58054A64200DC344696
:101B600044E04FEA08314FF480523F48FFF74FFFFF
:101B7000002508E00AEB05003B49085CFF2800D07F
:101B800003E0681C85B2A542F4DB00BFA54216DA6B
:101B90004046FFF7B7FF002507E019F8050005EB01
:101BA0000A01314A5054681C85B2A542F5DB4FEA60
:101BB00008314FF480522C48FFF781FF04E02246A1
:101BC00039464846FFF77BFFA64200D10FE008F1F7
:101BD00001084FF0000AA1442744301B86B2B6F535
:101BE000805F02DD4FF4805400E03446B9E700BF67
:101BF000BDE8F08710B5FFF7CFFEFFF72EFF0020FE
:101C0000174908604FF0C70000F030F8012015496F
:101C1000C1F88801FFF721FF10BD10B50020104961
:101C200008604FF0B90000F021F801200D49C1F81B
:101C30008801032000F015FE10BD10B500200849F2
:101C400008604FF0AB0000F011F801200549C1F821
:101C50008801032000F005FE10BD000000080140CF
:101C600088012142000021426000002070B5054635
:101C7000002405E0601CC4B2C82C01DD002070BD4A
:101C800002212F4801F0FEFD0028F3D029462C4800
:101C900001F0A5FD002400BF0121294801F0F2FD5B
:101CA0000028F9D0601CC4B2C82C01DD0020E6E792
:101CB000234801F096FDC0B2E1E708B5012141F2E9
:101CC000040001F01CFAE020ADF8000018208DF8A7
:101CD000030003208DF8020069461A4800F05CFFFB
:101CE000E021184801F003F80020174908804FF45C
:101CF0008270488000208880C88008814FF400707E
:101D00004881382088810020C881072008820C483B
:101D100001F08CFC01210A4801F02BFDFF20FFF7A8
:101D2000A5FF08BD10B50446074884810146044854
:101D300001F07CFC0121024801F01BFD10BD0000F8
:101D400000300140000801406010002008B501216A
:101D5000142001F0D4F91C20ADF8000010208DF8FB
:101D6000030003208DF802006946984800F014FF34
:101D70001C21964800F0BBFF1020ADF800008DF844
:101D8000030003208DF802006946914800F004FF2B
:101D900010218F4800F0ABFF2020ADF80000482054
:101DA0008DF8030003208DF802006946884800F092
:101DB000F3FEFFF782FF1021844800F09AFF102104
:101DC000834800F094FF08BD2DE9F04107460D4619
:101DD000164610217E4800F08CFF3846FFF746FF7C
:101DE0008046002405E0FF20FFF740FF2855601CD7
:101DF000C4B2B442F7DB1021754800F078FF4046CA
:101E0000BDE8F0812DE9F04107460C46154610214A
:101E10006F4800F06EFF3846FFF728FF8046002627
:101E200005E014F8010BFFF721FF701CC6B2AE42AB
:101E3000F7DB1021664800F05AFF4046BDE8F0810C
:101E40001CB564A103C9CDE900011020FFF76AFFAA
:101E5000052269463020FFF7D5FF0522694610208C
:101E6000FFF7B2FF002406E01DF80400A52800D00B
:101E700003E0601CC4B2052CF6DB00BF052C01D0CA
:101E800001201CBD0020FCE770B505460C46102162
:101E90004F4800F02EFF2846FFF7E8FE0646204692
:101EA000FFF7E4FE10214A4800F021FF304670BDE4
:101EB00070B504461021464800F01BFF2046FFF78E
:101EC000D5FEFF20FFF7D2FE05461021404800F066
:101ED0000EFF284670BD70B505461020FFF722FFA3
:101EE00010213A4800F005FF20222946A020FFF7E4
:101EF00089FF1021354800F0FAFE00BF2021344848
:101F000000F0DBFE0028F9D10720FFF7D1FF0446DF
:101F100021462720FFF7B8FF14F0100F05D0FF214E
:101F2000E120FFF7B1FF102070BD14F0200F01D0A9
:101F30002020F9E7FF20F7E770B504461020FFF7EF
:101F4000F1FE0720FFF7B4FF054629462720FFF7DB
:101F50009BFF15F0400F0AD0202221466120FFF799
:101F600033FFFF21E220FFF78FFF002070BD01202B
:101F7000FCE710B51021154800F0BBFE05221749FB
:101F80003020FFF73FFF052215492A20FFF73AFFCF
:101F900001212120FFF778FF01212220FFF774FFA4
:101FA0001A212420FFF770FF28212520FFF76CFF5E
:101FB0000F212620FFF768FF0E212020FFF764FF86
:101FC0001021024800F093FE10BD000000080140FF
:101FD00000100140A5A5A5A5A5000000E48100080A
:101FE000E981000810B504462046FFF73FFE10BD0A
:101FF00010B53820FFF796FE10BD10B50020FFF792
:1020000091FE10BD08B50121042001F078F81C20D4
:10201000ADF8000010208DF8030003208DF80200B9
:102020006946FF4800F0B8FD1C21FD4800F05FFE46
:10203000FFF743FE0120FB49086008BD10B50120F1
:10204000F84908604FF0FF00FFF7CCFF10BD10B556
:10205000002400BFFF20FFF7C5FFFF2801D10020AB
:1020600010BD641C6FF07F408442F3D30120F7E77A
:1020700010B50020EB490860FFF7E9FF08B9002020
:1020800010BDFFF7DBFF0120FAE770B5054640F60B
:10209000FF7401E0601E84B2FF20FFF7A3FFA84297
:1020A00001D0002CF6D10CB9FF2070BD0020FCE758
:1020B00070B504460D46FE20FFF7E7FF08B101208A
:1020C00070BD04E0FF20FFF7D1FD2070641C2800E4
:1020D000A5F101018DB2F5D1FF20FFF783FFFF20AD
:1020E000FFF780FF0020EBE770B506460D46FFF7CF
:1020F000AEFF08B1012070BD2846FFF773FFFD2D2C
:1021000019D0002404E0305DFFF7B0FD601C84B2FC
:10211000B4F5007FF7DBFF20FFF764FFFF20FFF738
:1021200061FFFF20FFF75EFF044604F01F00052853
:1021300001D00220DFE70020DDE72DE9F041054670
:102140000C4617464FF00008FFF778FFFFF790FFA7
:1021500010B1FF20BDE8F08145F04000FFF742FFDD
:10216000200EFFF73FFFC4F30740FFF73BFFC4F328
:102170000720FFF737FFE0B2FFF734FF3846FFF7DD
:1021800031FF0C2D02D1FF20FFF72CFF4FF01F086D
:1021900000BFFF20FFF726FF064616F0800F06D08F
:1021A0005FEA0800A8F1010101F0FF08F1D1304613
:1021B000D0E770B50546012200210A20FFF7BDFFD8
:1021C000044624B910212846FFF772FF0446FFF7A2
:1021D00035FF0CB1012070BD0020FCE770B505464D
:1021E000012200210920FFF7A8FF044624B910218D
:1021F0002846FFF75DFF0446FFF720FF0CB10120E2
:1022000070BD0020FCE77FB56846FFF7E7FF10B11F
:10221000002004B070BD9DF8000000F0C000402810
:1022200009D19DF809009DF8081000EB0120401C21
:1022300084B2A50220E09DF8050000F00F009DF893
:102240000A1000EBD1109DF8091001F0030100EB1A
:102250004100861C9DF8080080119DF8071000EBD6
:1022600081019DF8060000F0030001EB8020441C72
:10227000A6F1090004FA00F52846CAE770B5002463
:1022800001E0601C84B2B4F5706FFADB002404E056
:10229000FF20FFF7EBFC601C84B20A2CF8DB002562
:1022A00000BF952200210846FFF747FF0446681C3F
:1022B000C5B2012C01D0C82DF3DBC82D01D10120FE
:1022C00070BD0020FCE7F8B5FFF79CFEFFF790FE1D
:1022D000002504E0FF20FFF785FE681C85B20A2D6B
:1022E000F8DB142600BF952200210846FFF725FFE2
:1022F0000446012C04D03000A6F101018EB2F2D1C7
:10230000002049490870012C6ED187224FF4D57105
:102310000820FFF712FF012845D1002506E0FF2025
:10232000FFF760FE0DF80500681C85B2042DF6DB92
:102330009DF80200012857D19DF80300AA287CD1FE
:102340004FF6FE7600BF012200213720FFF7F5FE91
:10235000012291072920FFF7F0FE044624B1300046
:10236000A6F101018EB2EED1F6B3012200213A208E
:10237000FFF7E3FEC0BB002506E0FF20FFF732FEBB
:102380000DF80500681C85B2042DF6DB9DF80000F1
:1023900010F0400F03D00620234908704DE00420C0
:1023A0002149087049E0012200213720FFF7C5FECE
:1023B000012200212920FFF7C0FE0446012C19DC70
:1023C0000220194908704FF6FE7600BF0122002155
:1023D0003720FFF7B2FE012200212920FFF7ADFED2
:1023E0000446CCB1300000E027E0A6F101018EB236
:1023F000ECD111E001200C4908704FF6FE7600BFC9
:10240000012200211046FFF798FE044624B1300057
:10241000A6F101018EB2F3D166B10122510205E0AD
:10242000000801408C012142070000201020FFF726
:1024300084FE10B1002047490870FFF7FFFDFFF749
:10244000DCFD4448007808B10020F8BD0CB12046FE
:10245000FBE7AA20F9E72DE9F04106460F461546AD
:102460003C480078062800D07F02012D0CD10122C3
:1024700039461120FFF761FE0446FCB96902304677
:10248000FFF716FE044619E0012239461220FFF735
:1024900054FE044600BF4FF400713046FFF708FEBB
:1024A000044606F50076681EC0B2050001D0002C77
:1024B000F1D0012200210C20FFF73FFEFFF7BEFD07
:1024C0002046BDE8F0812DE9F04106460F4615464D
:1024D00020480078062800D07F02012D0CD101226F
:1024E00039461820FFF729FE04466CBBFE21304612
:1024F000FFF7FAFD044627E016480078012809D0C6
:10250000012200213720FFF718FE0122294617205B
:10251000FFF713FE012239461920FFF70EFE04468D
:1025200094B900BFFC213046FFF7DEFD044606F5F6
:102530000076681EC0B2050001D0002CF2D0FD214B
:102540000020FFF7D1FD0446FFF778FD2046BDE8E7
:10255000F08100000700002010B5A348006820F0BB
:102560000F00A249C1F800080846D0F8000840F062
:1025700003009D4908604FF000009D49086040F24B
:10258000EE2000F06EF901209A49C1F880010F2079
:1025900000F067F910BD10B500249348006820F0E2
:1025A0000F009249C1F800080846D0F8000840F032
:1025B0000800C1F8000804E0601CC4B2012000F06B
:1025C00050F98D48006808B1C82CF5DBC82C01DB38
:1025D000012010BD002404E0601CC4B2012000F002
:1025E00040F98548006808B9F02CF5DBF02C01DBD8
:1025F0000120EEE70020ECE710B57B48006820F0F2
:102600000F007A49C1F800080846D0F8000840F0E9
:102610000300754908604FF00000754908604FF0ED
:10262000020000F01EF901207249C1F880016F48D4
:10263000D0F8000820F00F006C49C1F800080846E7
:10264000D0F8000840F00800674908604FF00C001F
:1026500000F007F96848006808B1012400E0002490
:10266000322000F0FEF8204610BD70B5002601258E
:1026700008E0FFF7C1FF0446E00140EA6600C6B289
:10268000681CC5B2082DF4DD304670BD70B5044637
:102690005548006820F00F005449C1F8000808466A
:1026A000D0F8000840F00300C1F800084FF0010620
:1026B00022E004F00105641075B100204C49086067
:1026C0004FF0020000F0CDF801204A49C1F8800126
:1026D0003C2000F0C6F80DE00020454908604FF0AE
:1026E0003C0000F0BEF801204249C1F88001022000
:1026F00000F0B7F8701CC6B2082EDADD70BD10B558
:10270000FFF72AFFFFF747FFCC20FFF7BFFF44206A
:10271000FFF7BCFF10BD10B53848806940F00400D9
:10272000364988613048006820F00F002F49C1F811
:1027300000080846D0F8000840F00300C1F800087F
:102740000846D0F80C0840F00100C1F80C08FFF76B
:1027500003FFFFF720FF10BD2DE9F84FFFF7CFFF74
:10276000FFF7FAFEFFF717FFCC20FFF78FFFBE2021
:10277000FFF78CFFFFF779FF8346FFF776FF804670
:10278000B8F1070F0ADD6FEA080000F0FF086FEAF2
:102790000B0000F0FF0B4FF0000A01E04FF0010AC0
:1027A000C1464FEA09200FFA80F909EB0B000FFA36
:1027B00080F9484604F0E3FC009004F021FD064651
:1027C00000220F4B04F06AFC044604F0FAFC0FFAF6
:1027D00080F9BAF1000F02D04846BDE8F88FC9F180
:1027E000000000B2F9E700000008014000000140CD
:1027F00080012142000021420001214200100240DC
:102800000000E43F10B504466FF0040000F041F909
:10281000E11704EB5171C9101F4A1170104600787E
:102820004FF47A7148431D49088010BD01461B4A88
:1028300012884A434FF0E0235A6100229A61012234
:102840001A6100BF4FF0E022106910F0010F02D0B2
:1028500010F4803FF6D000224FF0E0231A619A6115
:10286000704701460C4A12784A434FF0E0235A6100
:1028700000229A6101221A6100BF4FF0E022106924
:1028800010F0010F02D010F4803FF6D000224FF07C
:10289000E0231A619A617047080000200A000020B6
:1028A000014600BF704700BF484A128812F0400F2F
:1028B000FAD0C2B2464B1A80704710B586B00446B3
:1028C000012144F2050000F01AFC4FF40070ADF84D
:1028D000140003208DF8160018208DF8170005A9A4
:1028E0003C4800F059F94FF48060ADF81400042022
:1028F0008DF8170005A9374800F04EF925208DF80E
:10290000000003208DF801008DF8020001208DF8F1
:102910000300684600F069F801940020ADF8080053
:10292000ADF80A00ADF80C00ADF810000C20ADF8C1
:102930000E0001A9254800F090FC012240F225512B
:10294000224800F022FD0121204800F012FD06B0CF
:1029500010BD10B540F225511C4800F0FEFD10B32B
:102960001A4800F07AFDC4B21B48007810F0800FBE
:102970002BD11948007810F0400F0CD00A2C03D04E
:1029800000201549087020E01348007840F08000CE
:102990001149087019E00D2C06D10F48007840F05D
:1029A00040000D49087010E00B48007800F03F002F
:1029B0000A490C5408480078401C0749087008462A
:1029C00000783F2801DD0020087010BD003801406C
:1029D00004380140000801400C0000207210002063
:1029E00036490143364A1160704770B50021002313
:1029F0000F22C4784CB3324C246804F4E064C4F56C
:102A0000E0644FEA1421C1F1040322FA01F2447890
:102A100004FA03F1847804EA020444EA01014FEA6B
:102A20000111284C0678A155047804F01F054FF0D9
:102A3000010404FA05F405784FEA65154FF0E02625
:102A400006EB8505C5F8004109E0047804F01F0590
:102A50000124AC401C4D0678761145F8264070BD27
:102A60001A4A0A4002431A4B1A60704741B1194A88
:102A7000126842EA00024FF0E023C3F8102D07E08D
:102A8000144A126822EA00024FF0E023C3F8102D26
:102A90007047042808D14FF0E021096941F0040192
:102AA0004FF0E022116107E04FF0E021096921F0C9
:102AB00004014FF0E0221161704700000000FA05A8
:102AC0000CED00E000E400E080E100E080FFFF1F8B
:102AD00008ED00E010ED00E010B50446CA4884425D
:102AE00008D10121042000F024FB0021042000F083
:102AF00020FB46E0C548844208D10121082000F0AF
:102B000018FB0021082000F014FB3AE0C048844282
:102B100008D10121102000F00CFB0021102000F052
:102B200008FB2EE0BB48844208D10121202000F0A0
:102B300000FB0021202000F0FCFA22E0B64884428D
:102B400008D10121402000F0F4FA0021402000F0DB
:102B5000F0FA16E0B148844208D10121802000F04B
:102B6000E8FA0021802000F0E4FA0AE0AC48844250
:102B700007D10121801500F0DCFA0021A01500F03A
:102B8000D8FA10BD10B50121084600F0D2FA002194
:102B9000012000F0CEFA10BD2DE9F04102460025DB
:102BA0000026002000230024002791F803C00CF029
:102BB0000F0591F803C01CF0100F03D091F802C06C
:102BC0004CEA0505B1F800C01CF0FF0F31D01468C5
:102BD00000202BE04FF0010C0CFA00F3B1F800C01C
:102BE0000CEA03069E4220D183004FF00F0C0CFA32
:102BF00003F7BC4305FA03FC4CEA040491F803C054
:102C0000BCF1280F06D14FF0010C0CFA00FCC2F801
:102C100014C00AE091F803C0BCF1480F05D14FF091
:102C2000010C0CFA00FCC2F810C0401C0828D1D3DB
:102C30001460B1F800C0BCF1FF0F34DD546800200F
:102C40002EE000F1080C4FF0010808FA0CF3B1F87F
:102C500000C00CEA03069E4221D183004FF00F0C06
:102C60000CFA03F7BC4305FA03FC4CEA040491F8A0
:102C700003C0BCF1280F05D100F1080C08FA0CF8CC
:102C8000C2F8148091F803C0BCF1480F07D100F1DD
:102C9000080C4FF0010808FA0CF8C2F81080401C2C
:102CA0000828CED35460BDE8F0814FF6FF71018053
:102CB000022181700421C170704702460020936890
:102CC0000B4201D0012000E00020704701468868D7
:102CD00080B2704702460020D3680B4201D0012029
:102CE00000E0002070470146C86880B2704701616B
:102CF0007047416170470AB1016100E0416170476E
:102D0000C16070474FF480320A4382618161826101
:102D100082698269704702460020424B18684FF66C
:102D20008073184040EA021008433E4B1860704719
:102D30003D49C8617047F0B50A46002300240021D0
:102D4000002500F00046B6F1004F02D1354EF16982
:102D500001E0344E7168C0F3034583B200F44016BD
:102D6000B6F5401F08D121F070612E4E766826F02E
:102D700070662C4F7E6012E000F48016B6F5801F5E
:102D800006D1032606FA05F4A14341F0706106E07E
:102D9000460D360103FA06F6B14341F0706122B1E7
:102DA000460D360103FA06F6314300F00046B6F14F
:102DB000004F02D11B4EF16101E01A4E7160F0BD6F
:102DC00030B500228B071C0F0F2303FA04F2154BBA
:102DD00008338C1053F824309343124C08348D1070
:102DE00044F8253023468C1053F824308C07240FE8
:102DF00000FA04F423430B4C08348D1044F82530BA
:102E000030BD0A490860704700080140000C0140CD
:102E1000001001400014014000180140001C014056
:102E2000002001400000014000002042DC00204260
:102E3000DB48006840F00100D94908600846406856
:102E4000D8490840D649486008460068D649084035
:102E5000D34908600846006820F4802008600846CE
:102E6000406820F4FE0048604FF41F0088607047FF
:102E7000CB49096821F48031C94A116011460968BB
:102E800021F480211160B0F5803F03D0B0F5802F90
:102E90000ED106E0C249096841F48031C04A116090
:102EA00007E0BF49096841F4A021BD4A116000E074
:102EB00000BF00BF704710B501460022002300206C
:102EC0004A11012A02D1B64C236806E0022A02D137
:102ED000B34C236A01E0B24C636A01F01F02012483
:102EE00094401C4201D0012000E0002010BD70B5CC
:102EF00000240025002600BF3120FFF7DCFF064636
:102F0000641CB4F5A06F01D0002EF5D03120FFF77E
:102F1000D2FF08B1012500E00025284670BD01461A
:102F200000209F4A106820F0F80040EAC1001060BD
:102F300070479E490860704702460020984B5868C9
:102F400020F47C1042EA01031843954B5860704707
:102F500096490866704701460020914A506820F063
:102F600003000843506070478D48406800F00C0033
:102F70007047014600208A4A506820F0F00008435C
:102F80005060704701460020854A506820F4E06098
:102F900008435060704701460020814A506820F481
:102FA000605040EAC1005060704729B17C4A527AB3
:102FB00002437B4B5A7206E0794A527AC343DBB232
:102FC0001A40774B5A72704779490860704701463A
:102FD0000020734A506820F4404008435060704716
:102FE0000021744A11706E4A82F82010012802D024
:102FF000042808D103E001216E4A117004E0052184
:103000006C4A117000E000BF00BF70476A49086059
:1030100070476349096A0143614A11627047674911
:103020000860704730B500210022002400235C4D69
:103030006D6805F00C0121B1042905D0082923D1C0
:1030400005E05F4D056022E05D4D05601FE0544DD9
:103050006D6805F47012524D6D6805F480340225D8
:1030600005EB92421CB9574D554305600BE04C4DA2
:103070006D6815F4003F03D0524D5543056002E0E2
:103080004F4D5543056002E04D4D056000BF00BF48
:10309000434D6D6805F0F00109094B4D6B5C056807
:1030A000DD4045603E4D6D6805F4E061090A464D1E
:1030B0006B5C4568DD408560394D6D6805F4605195
:1030C000C90A414D6B5C4568DD40C560344D6D6893
:1030D00005F44041890B3D4D6B5CC568B5FBF3F5CC
:1030E000056130BD29B12E4A526902432C4B5A6109
:1030F00004E02B4A52698243294B5A61704729B137
:10310000274A92690243264B9A6104E0244A926955
:103110008243234B9A61704729B1214AD269024305
:103120001F4BDA6104E01E4AD26982431C4BDA610C
:10313000704729B11A4AD2680243194BDA6004E099
:10314000174AD2688243164BDA60704729B1144A95
:1031500012690243124B1A6104E0114A1269824358
:103160000F4B1A6170471A49086070470F49C864CD
:1031700070470B49C87170470948406A40F0807039
:1031800007494862704701460020054A92680A4292
:1031900001D0012000E0002070470149887270478B
:1031A000001002400000FFF8FFFFF6FE0000424260
:1031B000D800424220100240800442423C04424275
:1031C00000127A0000093D001400002024000020B5
:1031D0004004424210B50446FC48844209D1012112
:1031E0008803FFF7A6FF00214FF48040FFF7A1FFFF
:1031F00032E0F748844209D101214804FFF7A6FFD5
:1032000000214FF40030FFF7A1FF25E0F148844290
:1032100009D101218804FFF799FF00214FF4802094
:10322000FFF794FF18E0EC48844209D10121C8045B
:10323000FFF78CFF00214FF40020FFF787FF0BE022
:10324000E648844208D101210805FFF77FFF0021ED
:103250004FF48010FFF77AFF10BD2DE9F04786B0DC
:1032600005460E460024A24600BFA1460027B089AD
:1032700000B100BF2F462C8A4CF6FF700440F08846
:1032800004432C82AC894EF6F3100440B088318997
:103290000843718908430443AC81AC8A4FF6FF4070
:1032A0000440B0890443AC8201A8FFF7BBFEC748C5
:1032B000874202D1DDF810A001E0DDF80CA0A8895A
:1032C00010F4004F08D00AEBCA0000EB0A10316876
:1032D0004900B0FBF1F807E00AEBCA0000EB0A1066
:1032E00031688900B0FBF1F86420B8FBF0F004010C
:1032F0002009642101FB1089A88910F4004F08D02F
:10330000322000EBC900B0FBF1F000F007000443ED
:1033100008E0322000EB09106421B0FBF1F000F06E
:103320000F0004432C8106B0BDE8F0874FF416511E
:10333000016000218180C18001810C214181002137
:103340008181704710B502460020108A4FF2FF03BA
:1033500018400B884C8823438C882343CC88234314
:103360001843108210BD0021018041808180C180FE
:10337000704721B1828942F40052828104E082893F
:103380004DF6FF731A4082817047F0B50346002462
:10339000002600250020A1F510676A3F00D100BF7C
:1033A0001846C1F3421401F01F06012707FA06F57B
:1033B000012C01D10C3004E0022C01D1103000E0CE
:1033C00014301AB107682F43076002E00768AF4363
:1033D0000760F0BD10B51AB1838A0B43838204E005
:1033E000838ACC43A4B22340838210BD028A4FF665
:1033F000F0731A400282028A0A430282704782896D
:103400004FF2FF731A40828182890A43828170479A
:1034100021B1828942F00202828104E082894FF662
:10342000FD731A4082817047028A4FF6DF731A409B
:103430000282028A0A430282704721B1028A42F460
:103440008042028204E0028A4BF6FF731A40028235
:103450007047C1F308028280704701468888C0F334
:1034600008007047818941F0010181817047028B1A
:10347000D2B20283028B42EA012202837047028B9E
:1034800002F47F420283028B0A430283704721B118
:10349000828A42F02002828204E0828A4FF6DF7341
:1034A0001A408282704721B1828A42F010028282E1
:1034B00004E0828A4FF6EF731A408282704721B18E
:1034C000828A42F00802828204E0828A4FF6F77311
:1034D0001A408282704721B1828942F4004282817F
:1034E00003E08289C2F30E028281704721B1828A91
:1034F00042F40062828204E0828A4FF2FF731A4033
:1035000082827047828A4FF6FB731A408282828AD7
:103510000A438282704721B1828A42F0020282828B
:1035200004E0828A4FF6FD731A4082827047024699
:103530000020B1F5007F00D100BF13880B4201D0FD
:10354000012000E00020704701F40072B2F5007F16
:1035500000D100BFCA430280704770B50246002404
:10356000002300250020A1F510666A3E00D100BFAF
:10357000C1F3421501F01F03012606FA03F3012DE2
:1035800002D19689334006E0022D02D1168A3340DB
:1035900001E0968A33400C12012606FA04F41688DC
:1035A000344013B10CB1012000E0002070BD10B513
:1035B00000220023A1F510646A3C00D100BF0A126A
:1035C00001249440A3B2DC43048010BD00380140C4
:1035D0000044004000480040004C004000500040C3
:1035E00010B50446BF48844208D101218014FFF77A
:1035F000A0FD0021A014FFF79CFD16E0BA4884420C
:1036000008D101210014FFF7A1FD00212014FFF7CC
:103610009DFD0AE0B548844207D10121C013FFF7A0
:1036200095FD0021E013FFF791FD10BD10B50022BC
:10363000028802F441520B884C8823438C88234330
:10364000CC8823430C8923434C8923438C8923430F
:10365000CC8923431A430280838B4FF2FF742340AB
:1036600083830B8A038210BD2DE9F04F85B0054698
:103670000C464FF0000902274FF000084FF0010BF5
:103680000026B246A88B4FF240010840A8830220D2
:103690002884B5F81C90A068022801D100BF36E04C
:1036A000A08810B94FF0010B01E04FF0020B8E48DB
:1036B000854200D100E000BF6846FFF7B3FCDDF8AB
:1036C00000A0E088B0F5007F0AD14FEA1A2000EB95
:1036D00080004000A168B0FBF1F0401D86B20BE015
:1036E0004FEA4B10BAFBF0F000EB80004000A168FD
:1036F000B0FBF1F0401D86B20A20B6FBF0F606F0F2
:103700000108A6EB0800C0F34F074FEA0828022F74
:1037100001DBFF2F02DD02274FF00008E08840EABE
:10372000080038432884A088A18908436188084399
:103730002188084340F4006040EA0909A5F81C907C
:1037400005B0BDE8F08F0021018041808180C180FB
:10375000018141818181C18107210182704700215E
:10376000018041808180C1800221816000218181AE
:10377000704721B1028842F04002028004E00288D2
:103780004FF6BF731A400280704721B1828B42F41A
:103790008062828304E0828B4FF6FF331A4082837B
:1037A000704770B5002400230C110125A540ABB271
:1037B0001AB185881D43858004E08588DE43B6B252
:1037C0003540858070BD10B51AB183880B43838066
:1037D00004E08388CC43A4B22340838010BD818160
:1037E0007047014688897047A1F57E42FF3A04D0B0
:1037F000028842F48072028004E002884FF6FF6380
:103800001A400280704721B1828842F0040282800F
:1038100004E082884FF6FB731A408280704702886A
:103820004FF2FF731A40028002880A4302807047F9
:10383000018841F480510180704721B1028842F42F
:103840000052028004E002884DF6FF731A400280A5
:10385000704702460020012901D0108B00E0908AB9
:1038600070470146088A7047B1F5804F04D102883D
:1038700042F48042028004E002884BF6FF731A4053
:10388000028070470246002013890B4201D00120BC
:1038900000E000207047CA4302817047F0B502463D
:1038A000002000240023002501F00F070126BE4060
:1038B000B4B20B1101269E40B3B2968806EA030506
:1038C0001689264202D00DB1012000E00020F0BD93
:1038D00010B5002201F00F040123A3409AB2D34394
:1038E000038110BD0030014000380040003C004022
:1038F0000648804706480047FEE7FEE7FEE7FEE78A
:10390000FEE7FEE7FEE7FEE7FEE7FEE7DD3900083B
:10391000ED00000800210020674A126842F480325E
:10392000654B1A6000BF644A126802F40030491CFB
:1039300010B9B1F5A06FF6D15F4A126812F4003FDA
:1039400001D0012000E00020012842D15B4A12682A
:1039500042F01002594B1A601A46126822F0030214
:103960001A601A46126842F002021A60524A5268FD
:10397000514B5A601A4652685A601A46526842F4CD
:1039800080625A601A46526822F47C125A601A46C3
:10399000526842F4E8125A601A46126842F0807285
:1039A0001A6000BF444A126812F0007FFAD0424AFF
:1039B000526822F00302404B5A601A46526842F0A5
:1039C00002025A6000BF3C4A526802F00C02082A08
:1039D000F9D1704710B5FFF79DFF10BD10B53648FF
:1039E000006840F0010034490860084640683449E6
:1039F00008403149486008460068324908402E496D
:103A000008600846006820F4802008600846406886
:103A100020F4FE0048604FF41F008860FFF7DAFFD3
:103A20004FF000602849086010BD10B5002100204B
:103A30000022214B5B6803F00C0121B1042906D060
:103A4000082928D107E0214B214C236027E01F4B98
:103A50001F4C236023E0184B5B6803F47010164B77
:103A60005B6803F48032022303EB904022B9194BC8
:103A70004343174C23600DE00F4B5B6813F4003F8A
:103A800004D0144B4343124C236003E00F4B4343D9
:103A90000F4C236003E00D4B0D4C236000BF00BFB3
:103AA000054B5B68C3F303130B4CE15C084B1B68CD
:103AB000CB40074C236010BD0010024000200240A4
:103AC0000000FFF8FFFFF6FE08ED00E000127A00AC
:103AD0002800002000093D002C0000202DE9F84FAF
:103AE000044689464FF0000B802C01DA274639E066
:103AF000B9F1000F04D02948C0684FEA500B01E02B
:103B00004FF0000B2548C0684FEA500A0120C0EB77
:103B10009A0A4FF0000810261BE0AAEB080008EBF9
:103B200050051E48006800EB850000EB0B010422E5
:103B30006846FDF76CFFBDF80000A04200D10AE026
:103B4000BDF80000A04201DAA84600E0AA46701EB7
:103B500086B2002EE1D100BF16B1BDF8020000E030
:103B6000002087B23846BDE8F88F0246002100E009
:103B7000491C0B4830F8110020B1094830F81100F9
:103B80009042F5D1064830F8110018B1054830F8D8
:103B9000110000E0104680B270470000480000208D
:103BA000EE810008CE83000870B5054615B1012DE1
:103BB00010D103E0FEF787FB04460DE0FDF7B6FEEB
:103BC000FDF704FFA0F56F41143901D0012400E096
:103BD000002401E0012400BF00BF0CB1012070BD32
:103BE0000020FCE70146002070472DE9F041074620
:103BF0000E4615461C464FF0000814B90420BDE8D7
:103C0000F08117B1012F18D106E02246294630462F
:103C1000FEF721FC804613E00AE069024FF40072CF
:103C20003046FDF7F4FE6D1C06F50076601EC4B24A
:103C3000002CF2DC4FF0000802E04FF0010800BF5A
:103C400000BFB8F1000F01D10020D8E70120D6E76E
:103C50002DE9F04107460E4615461C464FF0000878
:103C600014B90420BDE8F08117B1012F18D106E086
:103C7000224629463046FEF726FC804613E00AE03D
:103C800069024FF400723046FDF75CFF6D1C06F5CB
:103C90000076601EC4B2002CF2DC4FF0000802E097
:103CA0004FF0010800BF00BFB8F1000F01D10020A4
:103CB000D8E70120D6E72DE9F04106460F46154624
:103CC0002EBB37B1012F1AD0022F0FD0032F1BD1DB
:103CD00011E000201F490860FEF7B9F908B9002477
:103CE00000E0012401201B4908600FE04FF4007040
:103CF000288000240AE008202880002406E0FEF73F
:103D000082FA2860002401E0042400BF1DE0012E97
:103D10001AD137B1012F0FD0022F04D0032F10D1A9
:103D200006E000240FE04FF40070288000240AE031
:103D300008202880002406E04FF4805028600024EA
:103D400001E0042400BF00E001242046BDE8F0812A
:103D5000002070478C01214270B503460C4603E0F9
:103D600014F8015B03F8015B1500A2F10102F7D121
:103D700070BD30B5034601E003F8011B1400A2F149
:103D80000102F9D130BDF0B503461C460D460020B6
:103D900000BF1600A2F1010207D014F8017B15F84C
:103DA00001CBA7EB0C063000F3D0F0BD024600E0DB
:103DB000521C107810B110788842F9D110787047F1
:103DC0002DE9F04104460D46266BAE422FD02079F6
:103DD00008B360780123324604F13401FFF738FF5D
:103DE00010B10120BDE8F08100202071D4E9081055
:103DF0000844B0420FD9E7780AE0206A06446078A8
:103E00000123324604F13401FFF722FF781EC7B2C6
:103E1000012FF2DC00BF55B1607801232A4604F17E
:103E20003401FFF7E2FE08B10120DBE72563002043
:103E3000D8E770B5044600212046FFF7C1FF0546CC
:103E4000F5BB2078032850D16079D0B300202063DF
:103E50004FF40072002104F13400FFF78AFF55216E
:103E600084F83212AA2184F83312522134200155E9
:103E700084F83510612184F83610412184F8371018
:103E8000722184F8181284F81912412184F81A1248
:103E9000612184F81B12206984F81C022069010A40
:103EA00084F81D122069010C84F81E122069010E8D
:103EB00084F81F12E06884F82002E068010A01E03B
:103EC0001AE012E084F82112E068010C84F8221252
:103ED000E068010E84F823126078012304F13401B4
:103EE0006269FFF7B5FE002060716078002211461C
:103EF000FFF7E1FE00B10125284670BD0246891E8C
:103F0000D069801E884201D8002070479378D06A1B
:103F100001FB0300F9E72DE9F04105460C46022CB0
:103F200002D3E869A04202D80120BDE8F0812878D8
:103F3000012804D002282CD003285AD13DE027467E
:103F400007EB5707686A00EB57212846FFF738FF51
:103F500000B14EE0C7F3080105F1340010F801800C
:103F60007F1C686A00EB57212846FFF729FF00B144
:103F70003FE0C7F3080105F13400405C48EA00283F
:103F800014F0010F02D04FEA1810CEE7C8F30B006F
:103F9000CBE7686A00EB14212846FFF711FF00B158
:103FA00027E040F2FF1000EA440105F134000E184A
:103FB0003078717840EA0120B7E7686A00EBD411E5
:103FC0002846FFF7FDFE00B113E040F2FF1000EAC3
:103FD000840105F134000E18F0780006B17840EA4B
:103FE0000140717840EA01203178084320F07040A8
:103FF0009BE700BF4FF0FF3097E72DE9F0470546FC
:104000000E461746022E02D3E869B04202D84FF09E
:1040100002088AE02878012804D0022841D0032829
:104020007DD154E0B14609EB5909686A00EB59218A
:104030002846FFF7C5FE8046B8F1000F00D071E0BA
:10404000C9F3080105F134000C1816F0010F04D073
:10405000F9B2207861F31F1000E0F8B2207009F186
:10406000010901202871686A00EB59212846FFF7F1
:10407000A7FE8046B8F1000F00D053E0C9F3080155
:1040800005F134000C1816F0010F02D0C7F3071029
:1040900005E0207800F0F000C7F30321084320700A
:1040A00040E0686A00EB16212846FFF789FE80464B
:1040B000B8F1000F00D035E040F2FF1000EA4601F1
:1040C00005F134000C182770380A60702AE0686A1D
:1040D00000EBD6112846FFF773FE8046B8F1000FBB
:1040E00000D01FE040F2FF1000EA860105F1340025
:1040F0000C18E0780006A17840EA0140617840EAB7
:1041000001202178084300F0704007432770380AE7
:104110006070380CA070380EE07003E0FFE74FF0DD
:10412000020800BF00BF012028714046BDE8F087AB
:104130002DE9F04104460E46022E02D3E069B0425A
:1041400001D8022725E000271FE031462046FFF76F
:10415000E2FE054605B91BE0012D01D1022717E05B
:10416000681C01D1012713E0002231462046FFF7E9
:1041700044FF074607B10BE02069401C04D02069CA
:10418000401C2061012060712E46E069B042DCD8FD
:1041900000BF3846BDE8F0812DE9F0470446894666
:1041A000B9F1000F06D1E76817B1E069B84211D83C
:1041B00001270FE049462046FFF7ADFE0646022ED6
:1041C00002D20120BDE8F087E069B04201D9304653
:1041D000F8E74F463D4600BF6D1CE069A84204D891
:1041E0000225BD4201D90020ECE729462046FFF711
:1041F00092FE064606B909E0701C01D0012E01D1DD
:104200003046DFE7BD42E7D10020DBE700BF6FF0BB
:10421000704229462046FFF7F0FE8046B8F1000FB5
:1042200008D1B9F1000F05D02A4649462046FFF7CC
:10423000E4FE8046B8F1000F09D1E5602069401C1A
:104240000DD02069401E20610120607107E0B8F1A7
:10425000010F02D14FF0FF3000E001200546284653
:10426000B0E770B503460D46586A021D680A1E681D
:10427000B678B0FBF6F400BF02CA09B9002070BDE1
:104280008C4200D202E0641A121DF5E700BF1068EC
:104290002044F4E72DE9F04104460E46E680A56887
:1042A000012D03D02068C069A84202D80220BDE8D1
:1042B000F0812DB920680078032801D12068856A33
:1042C00065B9E56020680089B04201DC0220EEE7B4
:1042D0002068806A00EB1610206120E0206880785A
:1042E000070112E029462068FFF715FE0546681C05
:1042F00001D10120DBE7022D03D32068C069A84269
:1043000001D80220D3E7F01B86B2BE42EADAE560AC
:1043100029462068FFF7F2FD00EB161020612068A7
:10432000343006F00F0100EB411060610020BEE761
:104330002DE9F04104468846E088401C86B20EB163
:10434000206910B90420BDE8F08116F00F0F6ED17E
:104350002069401C2061E06828B920680089B042CB
:1043600065DC0420EFE720688078401E10EA161F05
:104370005DD1E1682068FFF7CEFD0546012D01D82B
:104380000220E0E7681C01D10120DCE72068C06959
:10439000A84246D8B8F1000F01D10420D3E7E16864
:1043A0002068FFF7F9FE05460DB90720CBE7012D80
:1043B00001D10220C7E7681C01D10120C3E7002119
:1043C0002068FFF7FDFC08B10120BCE7216801F17E
:1043D00034004FF400720021FFF7CBFC294620681F
:1043E000FFF78CFD21680863002710E00120216899
:1043F000087100212068FFF7E3FC08B10120A2E763
:104400002068006B401C21680863781CC7B22068D4
:104410008078B842EADC2068006BC01B2168086322
:1044200000BFE56029462068FFF768FD2061E6804F
:104430002068343006F00F0100EB4110606100206D
:1044400081E72DE9F04706460C46207820F0400031
:10445000401E00EB800101EBC0084FF0000901276E
:1044600000BFF84810F80900205CF64911F809105F
:104470002144497840EA012597B12846FFF775FBAA
:104480000746B8F1FF0F08D2414608F1010836F897
:104490001100FFF76AFBB84208D00020BDE8F087A2
:1044A000A5F57F40FF3801D00020F7E709F10100B2
:1044B00081460D28D5D3207810F0400F05D027B1C4
:1044C00036F8180008B10020E8E70120E6E7F0B56B
:1044D0000446087800F03F00401E00EB800707EB21
:1044E000C0020025012600BFD648405D085CD54FBC
:1044F0007F5D0F447F7840EA07234EB1FF2A01D346
:104500000020F0BD1E461046521C24F8103005E075
:10451000A3F57F40FF3801D00020F2E7681C054674
:104520000D28E1D3087810F0400F06D0FF2A01D300
:104530000020E6E7002024F812000120E1E7F0B5B2
:1045400004461D464D730F27CF7200270F738F76D9
:10455000BC4681F81BC0571E07EB870C0CEBC70647
:10456000002738463B4600BFA0F57F47FF3F03D0FA
:104570003746761C34F81700DFF8C8C21CF803C0B1
:1045800001F80C000712DFF8BCC21CF803C08C4411
:104590008CF8017008B94FF6FF705F1C3B460D2F79
:1045A000E2D3A0F57F47FF3F02D034F816700FB971
:1045B00042F040020A70F0BD2DE9FC4707468A46EA
:1045C00090461C460B2251463846FFF7C5FB052C8A
:1045D0000BDD00BF601000EBC43138F8022B8818E7
:1045E00084B2B8F800000028F4D1072600BF2046A6
:1045F000E11704EB11710911A4EB0111303101F045
:10460000FF09B9F1390F03DD09F1070000F0FF09D7
:104610003046761E0DF800902046E11704EB11712C
:104620000C11002CE3D17E200DF8060000250BE0D4
:10463000785D812807DB785DFE2804DC701EA842C7
:1046400000D106E06D1C6D1CB54202D2785D2028B9
:10465000EED100BF00BF082E04D23046761C1DF8F4
:10466000000000E02020C2B228466D1C3A54082DFC
:10467000F1D3BDE8FC8730B5014600200B2200BF16
:10468000431003EBC01411F8015B6319D8B2531E39
:104690001A00F5D130BD2DE9F0470446002120462F
:1046A000FFF7F8FD8046B8F1000F02D04046BDE8A4
:1046B000F0874FF0FF09CA4600BF21692068FFF765
:1046C0007FFB8046B8F1000F00D054E065692E787A
:1046D00016B94FF004084EE0E87A00F03F07E52EE7
:1046E00004D017F0080F04D00F2F02D04FF0FF09AD
:1046F00039E00F2F1CD1E069A0B316F0400F06D0AF
:1047000095F80DA026F04006B146E08820844E457D
:104710000AD1687B504507D12946E069FFF791FE31
:1047200010B1A9F1010000E0FF2000F0FF091AE03C
:10473000B9F1000F05D12846FFF79DFF504500D184
:1047400019E04FF0FF094FF6FF702084A069C07A8E
:1047500010F0010F07D10B222846A169FFF713FBC8
:1047600000B908E0FFE700212046FFF7E1FD8046A1
:10477000B8F1000FA1D000BF404698E72DE9F047FF
:1047800004464FF0FF09CA464FF004084EE0216985
:104790002068FFF715FB8046B8F1000F00D048E015
:1047A00065692E7816B94FF0040842E0E87A00F007
:1047B0003F07E52E05D000BF17F0080F04D00F2FDC
:1047C00002D04FF0FF0928E00F2F1AD116F0400F4A
:1047D00006D095F80DA026F04006B146E08820846A
:1047E0004E450AD1687B504507D12946E069FFF75D
:1047F0006EFE10B1A9F1010000E0FF2000F0FF09FA
:104800000BE0B9F1000F04D12846FFF734FF504503
:1048100002D04FF6FF7020840BE000212046FFF706
:1048200087FD8046B8F1000F00D002E02069002823
:10483000ADD100BFB8F1000F01D00020206140468B
:10484000BDE8F087AE8500082DE9F04F85B004463D
:10485000D4F81880D4F81CB00C22414601A8FFF708
:104860007BFA9DF80F0010F0200F03D0062005B052
:10487000BDE8F08F9DF80F0010F0010F24D000204C
:1048800088F80B00E06101270DE03B465A4601A97C
:104890004046FFF791FE2046FFF7FDFE054605B1B5
:1048A00003E0781C87B2642FEFDB00BF642F01D1D7
:1048B0000720DCE7042D01D02846D8E79DF80F003B
:1048C00088F80B00C4F81CB09DF80F0010F0020F20
:1048D0000ED0002601E0701C86B23BF816000028BE
:1048E000F9D106F119000D2190FBF1F086B200E03C
:1048F000012600212046FFF7CDFC05460DB12846D4
:10490000B5E700200746049000BF21692068FFF743
:1049100057FA054605B119E0606990F80090B9F1C1
:10492000E50F02D0B9F1000F08D10FB9E08804906B
:10493000781C80B20746B04201D107E00027012170
:104940002046FFF7F5FC0546002DDED000BF4DBB2D
:10495000012E27DD20460499FFF79CFC05460DBB80
:10496000A069FFF788FE0090701E86B200BF216923
:104970002068FFF725FA054605B112E06169E06994
:10498000F2B2009BFFF7DBFD0120216808710021D6
:104990002046FFF7CDFC05461DB9701E80B206000B
:1049A000E5D100BFD5B921692068FFF709FA0546AE
:1049B000A5B9D4F814A0202200215046FFF7D9F958
:1049C0000B225046A169FFF7C7F9A069C07A00F031
:1049D00018008AF80C00012021680871284646E773
:1049E00070B50446E688208CA0F57F42FF3A01D1DD
:1049F000304600E0208C81B22046FFF74BFC054694
:104A0000E5B900BF21692068FFF7DAF9054605B16D
:104A100010E0E52061690870012021680871E088D4
:104A2000B04200DB06E000212046FFF781FC05468E
:104A3000002DE7D000BF042D00D10225284670BD0F
:104A40002DE9F34F83B0834604980068019002E09B
:104A50000198401C0190019800782F28F8D0019807
:104A600000785C28F4D0DBF81C900025A84600BF35
:104A7000404608F1010801990C5C202C03DB2F2C27
:104A800001D05C2C00D133E0FF2D03D3062005B00C
:104A9000BDE8F08FE4B2812C14DBE0B2FE2811DC1B
:104AA000404608F1010801990E5C402E01DB7E2E84
:104AB00005DD802E01DBFE2E01DD0620E7E706EB9B
:104AC000042084B201212046FFF708F804460CB9FF
:104AD0000620DCE7802C06DA2146F8A0FFF766F90D
:104AE00008B10620D3E728466D1C29F81040BFE71F
:104AF00000BF019800EB080104980160202C01DA46
:104B0000042000E00020C7B2012D04D1681E39F84E
:104B100010002E280BD0022D24D1681E39F8100069
:104B20002E281FD1A81E39F810002E281AD10020D7
:104B300029F8150082460AE0AA4501D22E2000E09D
:104B40002020DBF8181001F80A000AF1010ABAF176
:104B50000B0FF1D347F02000DBF8181001F80A0022
:104B6000002094E708E0681E39F81040202C02D09D
:104B70002E2C00D002E06D1E002DF4D100BF0DB927
:104B8000062084E7002029F815000B222021DBF8FD
:104B90001800FFF7EEF84FF0000801E008F10108F7
:104BA00039F818002028F9D039F818002E28F5D047
:104BB000B8F1000F01D047F0030700E06D1E25B1EA
:104BC000681E39F810002E28F8D14FF0000A56461A
:104BD0000820029000BF404608F1010839F8104053
:104BE00004B962E0202C03D02E2C04D1A84502D0B9
:104BF00047F00307EFE70298824501D2A84514D198
:104C000002980B2802D147F003074EE0A84501D0D7
:104C100047F00307A84500D947E0A8464FF0080A27
:104C20000B200290B006060ED5E7802C09DB20464B
:104C3000FEF79BFF00210090FEF750FF044647F06F
:104C40000207FF2C10DD0298401E504504D847F0A3
:104C50000307DDF808A0BEE7201251460AF1010A59
:104C6000DBF81830585419E024B1214696A0FFF71C
:104C70009DF818B15F2447F003070FE0412C04DBD7
:104C80005A2C02DC46F0020608E0612C06DB7A2C86
:104C900004DC46F00106A4F1200084B250460AF17B
:104CA000010ADBF818301C5495E700BFDBF8180048
:104CB0000078E52803D10520DBF818100870029869
:104CC000082801D1B006060E06F00C000C2803D00F
:104CD00006F00300032801D147F0020717F0020F86
:104CE0000BD106F00300012801D147F0100706F0B0
:104CF0000C00042801D147F00807DBF81800C77240
:104D00000020C4E62DE9FC5F81460F4607F1090843
:104D1000D9F81000F0B3D9F81440207B0190002599
:104D200014E0665D202E00D112E0052E00D1E526AC
:104D3000019810F0080F06D0412E04DB5A2E02DC39
:104D400006F12000C6B208F8016B6D1C082DE8D3EF
:104D500000BF207A202819D02E2008F8010B082542
:104D600011E0665D202E00D10FE0019810F0100FC9
:104D700006D0412E04DB5A2E02DC06F12000C6B21A
:104D800008F8016B6D1C0B2DEBD300BFE07A387275
:104D9000E07F00E013E00106A07F41EA0041607F70
:104DA00041EA0020217F08433860217E607E41EA8D
:104DB0000020B880A17DE07D41EA0020F88000203D
:104DC00088F80000B869D0B3F869C0B3D7F818B054
:104DD0000025D9F8100070B3B9F82000A0F57F4184
:104DE000FF3928D0D9F81C0000901CE00021504663
:104DF000FEF774FE8246BAF1000F01D1002519E0DA
:104E0000BAF1FF0F05DD4FEA2A2029466D1C0BF889
:104E10000100F869401EA84201D800250AE0284692
:104E20006D1C0BF800A0009830F8021B5FEA010A25
:104E30000090DBD100BF00200BF8050000BFBDE8EB
:104E4000FC9F2DE9F3410446019800782F2803D0F8
:104E5000019800785C2805D10198401C0190002041
:104E6000A06002E020688069A06001980078202896
:104E700007D200212046FFF70DFA074600206061A7
:104E800043E000BF01A92046FFF7DAFD074607B15E
:104E90003AE02046FFF7FFFB0746A069C67AE7B174
:104EA000042F00D030E016F0200F11D00020A060B9
:104EB0006061002716F0040F0ED1E3E7222A3A3C86
:104EC0003E3F7C7F000000002B2C3B3D5B5D0000E3
:104ED00016F0040F00D1052716E016F0040F00D0DD
:104EE00012E06569E87A10F0100F01D105270BE098
:104EF000A97EE87E41EA00202A7D697D42EA0121FF
:104F000040EA0140A060BDE700BF3846BDE8FC8133
:104F100070B504460D46607801232A4604F1340139
:104F2000FEF763FE08B1032070BD94F8321294F8C6
:104F3000330241EA0020A0F52A41553901D0022070
:104F4000F2E794F86D00010694F86C0041EA004124
:104F500094F86B0041EA002094F86A10084320F0AE
:104F60007F40FD49884201D10020DDE794F88900A7
:104F7000010694F8880041EA004194F8870041EA6C
:104F8000002094F88610084320F07F40F2498842C0
:104F900001D10020C8E70120C6E72DE9F74F86B010
:104FA00006980068009000980078303805900598C1
:104FB00009280AD8009840783A2806D10098801C21
:104FC000009006990098086002E0E4480078059097
:104FD0000598022803D30B2009B0BDE8F08FE04903
:104FE000059851F82040079804600CB90C20F3E7AD
:104FF000207878B16078FEF7F5FD814619F0010F51
:1050000008D1089820B119F0040F01D00A20E3E775
:105010000020E1E700202070059860706078FEF7BE
:10502000C3FD814619F0010F01D00320D4E7089891
:1050300020B119F0040F01D00A20CDE74FF0000A8B
:1050400051462046FFF764FF0546012D18D104F5AF
:10505000F97898F8040098B198F80B00010698F8D0
:105060000A0041EA004198F8090041EA002098F856
:10507000081040EA010A51462046FFF749FF05465D
:10508000032D01D10120A7E70DB10D20A4E73F209A
:10509000015D94F8400041EA0020B0F5007F01D0A6
:1050A0000D2099E74A20015D94F84B0041EA002762
:1050B00077B994F85B00010694F85A0041EA004180
:1050C00094F8590041EA002094F8581040EA01078A
:1050D00027624420065DE670012E03D0022E01D027
:1050E0000D2079E777434120005D0646A07016B198
:1050F000701E304201D00D206EE74520015D94F80E
:10510000460041EA00202081208910F00F0F01D0D5
:105110000D2061E74720015D94F8480041EA002036
:105120000490049870B994F85700010694F856005A
:1051300041EA004194F8550041EA002094F85410E7
:10514000084304904220015D94F8430041EA002B9B
:10515000BBF1000F01D10D203EE70BEB07002189C9
:1051600000EB11100390DDE90301814201D20D2013
:1051700032E7DDE90310401AA178B0FBF1F00290AC
:10518000029808B90D2027E7012540F6F67102982C
:10519000884200D302254FF6F6710298884200D368
:1051A00003250298801CE06103985044E0620AEBFA
:1051B0000B006062032D16D1208908B10D200BE78A
:1051C00094F86300010694F8620041EA004194F803
:1051D000610041EA002094F860100843A062E06991
:1051E0008000019014E0208908B90D20F4E6606A7F
:1051F0003844A062022D02D1E069400007E0E06976
:1052000000F00100E16901EB410100EB5100019068
:10521000216A019800F2FF10B1EB502F01D20D204E
:10522000DAE64FF0FF3020610020E060032D5CD112
:10523000607194F8641094F8650041EA00205044CD
:1052400060616078012304F134016269FEF7CDFCEE
:10525000F0BB94F8321294F8330241EA0020A0F532
:105260002A41553941D194F83700010694F83600A7
:1052700041EA004194F8350041EA002094F83410E6
:1052800008433849884230D194F81B02010694F84B
:105290001A0241EA004194F8190241EA002094F808
:1052A00018120843304988421FD194F8230201069E
:1052B00094F8220241EA004194F8210241EA0020D8
:1052C00094F820120843E06094F81F02010600E001
:1052D0000BE094F81E0241EA004194F81D0241EAF5
:1052E000002094F81C120843206125701F48008894
:1052F000401C80B21D490880E0800020206320719E
:10530000A06100BF68E670B504460D4624B1207860
:1053100010B1E088A84201D0092070BD6078FEF786
:1053200061FC10F0010F01D00320F6E70020F4E744
:105330000246022A01DB0B207047094850F8223050
:105340000BB10020187009B100200870044840F823
:1053500022100020F0E700004641540046000020E3
:105360003C000020525261417272416144000020B1
:105370002DE9F7438CB0054616460020286006F05C
:105380001F0626F0010203A90DA8FFF706FE074637
:10539000CDF824D0F9480A9027B903A80D99FFF752
:1053A00050FD0746089C0FB904B9062716F01C0FDC
:1053B00058D04FB1042F03D103A8FFF745FA074691
:1053C00046F00806089C09E0E07A10F0110F01D0C1
:1053D000072703E016F0040F00D00827EFBB16F0F4
:1053E000080F3ED0FEF7B4FC804684F80E804FEAEA
:1053F0001820E0734FEA184121744FEA1860607476
:105400000020E072207700216177A177E177A17E0B
:10541000E07E41EA0020227D617D42EA012140EAEE
:1054200001490020A0760021E176207561750120F8
:1054300003990871B9F1000F13D00398D0F83080A8
:1054400049460398FEF774FE074637B9A9F10100F3
:105450000399C8604146039800E002E0FEF7B0FC03
:1054600007460EE06FB9E07A10F0100F01D0042764
:1054700007E016F0020F04D0E07A10F0010F00D020
:10548000072747B916F0080F01D046F02006039809
:10549000006BE8612C62FFB9AE71A17EE07E41EA4B
:1054A0000020227D617D42EA012140EA014028611D
:1054B000E07F0106A07F41EA0041607F41EA0020D1
:1054C000217F0843E8600020A860A8616862039813
:1054D00028600398C088A88038460FB0BDE8F083E4
:1054E0002DE9FF4F83B0044615469A46DDF810B00B
:1054F0000020CAF80000A1882068FFF704FF02908E
:10550000029818B1029807B0BDE8F08FA07910F0AA
:10551000800F01D00220F6E7A07910F0010F01D131
:105520000720F0E7D4E90210401A00900098854265
:1055300000D9009DBCE0A068C005C00D70D12068F6
:105540008078401EA16800EA512000F0FF09B9F1FF
:10555000000F25D1A06810B9206901900CE0606AA5
:1055600028B12046A168FEF77CFE019004E0616945
:105570002068FEF7D0FC01900198022805D2A0799E
:1055800040F08000A0710220BDE70198401C05D1C9
:10559000A07940F08000A0710120B4E7019860611B
:1055A00061692068FEF7AAFC06462EB9A07940F092
:1055B0008000A0710220A6E74E444FEA5528B8F1BA
:1055C000000F2ED009EB080021688978884203D9A2
:1055D00020688078A0EB09082168487808F0FF036C
:1055E00032465946FEF701FB28B1A07940F0800011
:1055F000A071012087E7A07910F0400F0DD0A069BD
:10560000801B404509D2A169891B0BEB41204FF457
:10561000007204F12801FEF79FFB4FEA48273DE0A6
:1056200029E0A069B04225D0A07910F0400F12D037
:1056300021684878012304F12801A269FEF708FBDC
:1056400028B1A07940F08000A07101205BE7A0792B
:1056500020F04000A071216848780123324604F10F
:105660002801FEF7C2FA28B1A07940F08000A071AD
:10567000012048E7A661A068C0F30800C0F50077E4
:10568000AF4200D92F46A068C0F3080204F12800F9
:1056900011183A465846FEF75FFB00BFBB44A068AE
:1056A0003844A060DAF800003844CAF80000ED1B66
:1056B000002D7FF440AF002025E72DE9FF4F83B098
:1056C000044615469B46049801900020CBF8000044
:1056D000A1882068FFF717FE0290029818B102987F
:1056E00007B0BDE8F08FA07910F0800F01D0022044
:1056F000F6E7A07910F0020F01D10720F0E7E0688B
:105700002844E168884200D20025D8E0A068C0059E
:10571000C00D7ED120688078401EA16800EA51202B
:1057200000F0FF0ABAF1000F35D1A06858B9D4F8DB
:105730001080B8F1000F13D100212068FEF72CFD76
:10574000804620610CE0606A28B12046A168FEF71F
:1057500088FD804604E061692068FEF71DFD8046F3
:10576000B8F1000F00D1ADE0B8F1010F08D1A07978
:1057700040F08000A0710220B2E70000B2100020CB
:1057800018F1010005D1A07940F08000A07101203E
:10579000A6E7C4F81480A07910F0400F12D0216859
:1057A0004878012304F12801A269FEF751FA28B1D3
:1057B000A07940F08000A071012091E7A07920F04D
:1057C0004000A07161692068FEF798FB06462EB97B
:1057D000A07940F08000A071022081E756444FEA92
:1057E0005529B9F1000F30D00AEB090021688978FA
:1057F000884203D920688078A0EB0A09216848789C
:1058000009F0FF0332460199FEF722FA38B1A07978
:1058100000E031E040F08000A071012060E7A06965
:10582000801B48450ED2A069801B019A02EB4021E3
:105830004FF4007204F12800FEF78EFAA07920F0F0
:105840004000A0714FEA49272DE0A069B04212D074
:10585000D4E9020188420ED22168487801233246F9
:1058600004F12801FEF7C1F928B1A07940F08000C9
:10587000A071012034E7A661A068C0F30800C0F55C
:105880000077AF4200D92F46A168C1F3080204F1A6
:10589000280150183A460199FEF75EFAA07940F0C7
:1058A0004000A07100BF019838440190A0683844BE
:1058B000A060DBF800003844CBF80000ED1B002DA1
:1058C0007FF424AF00BFD4E90201884201D9A06867
:1058D000E060A07940F02000A071002000E72DE9F1
:1058E000F0410446A1882068FFF70DFD0746F7BB8D
:1058F000A07910F0200F4BD0A07910F0400F0FD0FE
:1059000021684878012304F12801A269FEF7A0F973
:1059100010B10120BDE8F081A07920F04000A07115
:10592000E1692068FEF74CFA074607BB256AE87A6A
:1059300040F02000E872E0682877E068000A6877A5
:10594000E068010CA977E068000EE8772069A87686
:105950002069000AE8762069000C28752069000E8D
:105960006875FEF7F5F90646AE75300A00E00FE0FF
:10597000E875310C2976300E6876A07920F0200089
:10598000A0710120216808712068FEF752FA0746CD
:105990003846BFE770B504462046FFF7A0FF05462E
:1059A0000DB900202060284670BD0146022901DBA8
:1059B0000B207047FF4801700020FAE711B58DB049
:1059C000002204A90DA8FFF7E8FA04463CBB01A891
:1059D0000A90F9480B9004A80D99FFF732FA044693
:1059E000D4B9099818B904990698886114E00998FF
:1059F000C07A10F0100F0ED00998817EC07E41EA67
:105A0000002009990A7D497D42EA012140EA0140CE
:105A10000499886100E00524042C00D10524204667
:105A20000EB010BD2DE9FE4F04460D46A18820683A
:105A3000FFF769FC0290029810B10298BDE8FE8F52
:105A4000A07910F0800F01D00220F7E7606AF0B370
:105A5000681C43D1D4F8248058F804AB4FF00209F5
:105A600026696EB300BF00964FF0000B09F10209E2
:105A700000BF01960BF1010B31462068FEF74BFA8F
:105A80000646012E05D8A07940F08000A0710220C2
:105A9000D4E7701C05D1A07940F08000A0710120EE
:105AA000CCE70198401C8642E3D0D14504D848F8A1
:105AB00004BB009848F8040B2068C069B042D2D8F3
:105AC000606AC0F80090D14505D8002000E053E09E
:105AD000C8F800004FE0112002904CE0E068A842B6
